{
  "contractName": "ERC721_SaleToken",
  "abi": [
    {
      "inputs": [],
      "stateMutability": "nonpayable",
      "type": "constructor"
    },
    {
      "anonymous": false,
      "inputs": [
        {
          "indexed": true,
          "internalType": "address",
          "name": "owner",
          "type": "address"
        },
        {
          "indexed": true,
          "internalType": "address",
          "name": "approved",
          "type": "address"
        },
        {
          "indexed": false,
          "internalType": "uint256",
          "name": "tokenId",
          "type": "uint256"
        }
      ],
      "name": "Approval",
      "type": "event"
    },
    {
      "anonymous": false,
      "inputs": [
        {
          "indexed": true,
          "internalType": "address",
          "name": "owner",
          "type": "address"
        },
        {
          "indexed": true,
          "internalType": "address",
          "name": "operator",
          "type": "address"
        },
        {
          "indexed": false,
          "internalType": "bool",
          "name": "approved",
          "type": "bool"
        }
      ],
      "name": "ApprovalForAll",
      "type": "event"
    },
    {
      "anonymous": false,
      "inputs": [
        {
          "indexed": true,
          "internalType": "address",
          "name": "from",
          "type": "address"
        },
        {
          "indexed": true,
          "internalType": "address",
          "name": "to",
          "type": "address"
        },
        {
          "indexed": true,
          "internalType": "uint256",
          "name": "tokenId",
          "type": "uint256"
        }
      ],
      "name": "Transfer",
      "type": "event"
    },
    {
      "stateMutability": "payable",
      "type": "fallback",
      "payable": true
    },
    {
      "inputs": [],
      "name": "_tokenPrice",
      "outputs": [
        {
          "internalType": "uint256",
          "name": "",
          "type": "uint256"
        }
      ],
      "stateMutability": "view",
      "type": "function",
      "constant": true
    },
    {
      "inputs": [],
      "name": "tokenOwner",
      "outputs": [
        {
          "internalType": "address",
          "name": "",
          "type": "address"
        }
      ],
      "stateMutability": "view",
      "type": "function",
      "constant": true
    },
    {
      "stateMutability": "payable",
      "type": "receive",
      "payable": true
    },
    {
      "inputs": [
        {
          "internalType": "bytes4",
          "name": "interfaceId",
          "type": "bytes4"
        }
      ],
      "name": "supportsInterface",
      "outputs": [
        {
          "internalType": "bool",
          "name": "",
          "type": "bool"
        }
      ],
      "stateMutability": "view",
      "type": "function",
      "constant": true
    },
    {
      "inputs": [],
      "name": "name",
      "outputs": [
        {
          "internalType": "string",
          "name": "",
          "type": "string"
        }
      ],
      "stateMutability": "view",
      "type": "function",
      "constant": true
    },
    {
      "inputs": [],
      "name": "symbol",
      "outputs": [
        {
          "internalType": "string",
          "name": "",
          "type": "string"
        }
      ],
      "stateMutability": "view",
      "type": "function",
      "constant": true
    },
    {
      "inputs": [
        {
          "internalType": "uint256",
          "name": "tokenId",
          "type": "uint256"
        }
      ],
      "name": "tokenURI",
      "outputs": [
        {
          "internalType": "string",
          "name": "",
          "type": "string"
        }
      ],
      "stateMutability": "view",
      "type": "function",
      "constant": true
    },
    {
      "inputs": [
        {
          "internalType": "string",
          "name": "URI",
          "type": "string"
        }
      ],
      "name": "_setBaseURI",
      "outputs": [],
      "stateMutability": "nonpayable",
      "type": "function"
    },
    {
      "inputs": [
        {
          "internalType": "address",
          "name": "owner",
          "type": "address"
        }
      ],
      "name": "balanceOf",
      "outputs": [
        {
          "internalType": "uint256",
          "name": "",
          "type": "uint256"
        }
      ],
      "stateMutability": "view",
      "type": "function",
      "constant": true
    },
    {
      "inputs": [],
      "name": "balanceOfCont",
      "outputs": [
        {
          "internalType": "uint256",
          "name": "",
          "type": "uint256"
        }
      ],
      "stateMutability": "view",
      "type": "function",
      "constant": true
    },
    {
      "inputs": [
        {
          "internalType": "uint256",
          "name": "tokenId",
          "type": "uint256"
        }
      ],
      "name": "ownerOf",
      "outputs": [
        {
          "internalType": "address",
          "name": "",
          "type": "address"
        }
      ],
      "stateMutability": "view",
      "type": "function",
      "constant": true
    },
    {
      "inputs": [
        {
          "internalType": "address",
          "name": "operator",
          "type": "address"
        },
        {
          "internalType": "bool",
          "name": "approved",
          "type": "bool"
        }
      ],
      "name": "setApprovalForAll",
      "outputs": [],
      "stateMutability": "nonpayable",
      "type": "function"
    },
    {
      "inputs": [
        {
          "internalType": "address",
          "name": "owner",
          "type": "address"
        },
        {
          "internalType": "address",
          "name": "operator",
          "type": "address"
        }
      ],
      "name": "isApprovedForAll",
      "outputs": [
        {
          "internalType": "bool",
          "name": "",
          "type": "bool"
        }
      ],
      "stateMutability": "view",
      "type": "function",
      "constant": true
    },
    {
      "inputs": [
        {
          "internalType": "address",
          "name": "to",
          "type": "address"
        },
        {
          "internalType": "uint256",
          "name": "tokenId",
          "type": "uint256"
        }
      ],
      "name": "approve",
      "outputs": [],
      "stateMutability": "nonpayable",
      "type": "function"
    },
    {
      "inputs": [
        {
          "internalType": "uint256",
          "name": "tokenId",
          "type": "uint256"
        }
      ],
      "name": "getApproved",
      "outputs": [
        {
          "internalType": "address",
          "name": "operator",
          "type": "address"
        }
      ],
      "stateMutability": "view",
      "type": "function",
      "constant": true
    },
    {
      "inputs": [
        {
          "internalType": "address",
          "name": "from",
          "type": "address"
        },
        {
          "internalType": "address",
          "name": "to",
          "type": "address"
        },
        {
          "internalType": "uint256",
          "name": "tokenId",
          "type": "uint256"
        }
      ],
      "name": "transferFrom",
      "outputs": [],
      "stateMutability": "nonpayable",
      "type": "function"
    },
    {
      "inputs": [
        {
          "internalType": "address",
          "name": "from",
          "type": "address"
        },
        {
          "internalType": "address",
          "name": "to",
          "type": "address"
        },
        {
          "internalType": "uint256",
          "name": "tokenId",
          "type": "uint256"
        }
      ],
      "name": "safeTransferFrom",
      "outputs": [],
      "stateMutability": "nonpayable",
      "type": "function"
    },
    {
      "inputs": [
        {
          "internalType": "address",
          "name": "from",
          "type": "address"
        },
        {
          "internalType": "address",
          "name": "to",
          "type": "address"
        },
        {
          "internalType": "uint256",
          "name": "tokenId",
          "type": "uint256"
        },
        {
          "internalType": "bytes",
          "name": "data",
          "type": "bytes"
        }
      ],
      "name": "safeTransferFrom",
      "outputs": [],
      "stateMutability": "nonpayable",
      "type": "function"
    },
    {
      "inputs": [
        {
          "internalType": "uint256",
          "name": "_setTokenPrice",
          "type": "uint256"
        }
      ],
      "name": "tokenPrice",
      "outputs": [],
      "stateMutability": "nonpayable",
      "type": "function"
    },
    {
      "inputs": [
        {
          "internalType": "address",
          "name": "to",
          "type": "address"
        }
      ],
      "name": "buyToken",
      "outputs": [],
      "stateMutability": "payable",
      "type": "function",
      "payable": true
    },
    {
      "inputs": [
        {
          "internalType": "uint256",
          "name": "tokenId",
          "type": "uint256"
        }
      ],
      "name": "burn",
      "outputs": [],
      "stateMutability": "nonpayable",
      "type": "function"
    }
  ],
  "bytecode": "0x6080604052600c6006556000600755601e426200001d9190620001d7565b600b5562278d00600b54620000339190620001d7565b600c553480156200004357600080fd5b506040518060400160405280601081526020017f4552433732315f53616c65546f6b656e00000000000000000000000000000000815250600490805190602001906200009192919062000127565b506040518060400160405280600e81526020017f4552433732312d532d546f6b656e00000000000000000000000000000000000081525060059080519060200190620000df92919062000127565b5033600860006101000a81548173ffffffffffffffffffffffffffffffffffffffff021916908373ffffffffffffffffffffffffffffffffffffffff160217905550620002d2565b82805462000135906200023e565b90600052602060002090601f016020900481019282620001595760008555620001a5565b82601f106200017457805160ff1916838001178555620001a5565b82800160010185558215620001a5579182015b82811115620001a457825182559160200191906001019062000187565b5b509050620001b49190620001b8565b5090565b5b80821115620001d3576000816000905550600101620001b9565b5090565b6000620001e48262000234565b9150620001f18362000234565b9250827fffffffffffffffffffffffffffffffffffffffffffffffffffffffffffffffff0382111562000229576200022862000274565b5b828201905092915050565b6000819050919050565b600060028204905060018216806200025757607f821691505b602082108114156200026e576200026d620002a3565b5b50919050565b7f4e487b7100000000000000000000000000000000000000000000000000000000600052601160045260246000fd5b7f4e487b7100000000000000000000000000000000000000000000000000000000600052602260045260246000fd5b6132a580620002e26000396000f3fe6080604052600436106101235760003560e01c80636352211e116100a0578063a3e6761011610064578063a3e67610146103de578063b88d4fde14610409578063c87b56dd14610432578063d4ddce8a1461046f578063e985e9c5146104985761012a565b80636352211e146102f457806370a08231146103315780637e72fb521461036e57806395d89b411461038a578063a22cb465146103b55761012a565b806323b872dd116100e757806323b872dd1461022557806331b5b9071461024e5780633b971f9f1461027757806342842e0e146102a257806342966c68146102cb5761012a565b806301ffc9a71461012c57806306fdde0314610169578063081812fc14610194578063095ea7b3146101d1578063198c6022146101fa5761012a565b3661012a57005b005b34801561013857600080fd5b50610153600480360381019061014e91906120ae565b6104d5565b6040516101609190612afe565b60405180910390f35b34801561017557600080fd5b5061017e6105b7565b60405161018b9190612b19565b60405180910390f35b3480156101a057600080fd5b506101bb60048036038101906101b69190612141565b610649565b6040516101c89190612a97565b60405180910390f35b3480156101dd57600080fd5b506101f860048036038101906101f39190612072565b6106ce565b005b34801561020657600080fd5b5061020f610820565b60405161021c9190612dfb565b60405180910390f35b34801561023157600080fd5b5061024c60048036038101906102479190611f67565b610828565b005b34801561025a57600080fd5b5061027560048036038101906102709190612100565b610881565b005b34801561028357600080fd5b5061028c61092b565b6040516102999190612dfb565b60405180910390f35b3480156102ae57600080fd5b506102c960048036038101906102c49190611f67565b610931565b005b3480156102d757600080fd5b506102f260048036038101906102ed9190612141565b610936565b005b34801561030057600080fd5b5061031b60048036038101906103169190612141565b610a39565b6040516103289190612a97565b60405180910390f35b34801561033d57600080fd5b5061035860048036038101906103539190611f02565b610b18565b6040516103659190612dfb565b60405180910390f35b61038860048036038101906103839190611f02565b610bcf565b005b34801561039657600080fd5b5061039f610d9c565b6040516103ac9190612b19565b60405180910390f35b3480156103c157600080fd5b506103dc60048036038101906103d79190612036565b610e2e565b005b3480156103ea57600080fd5b506103f361101b565b6040516104009190612a97565b60405180910390f35b34801561041557600080fd5b50610430600480360381019061042b9190611fb6565b611041565b005b34801561043e57600080fd5b5061045960048036038101906104549190612141565b6110e1565b6040516104669190612b19565b60405180910390f35b34801561047b57600080fd5b5061049660048036038101906104919190612141565b611189565b005b3480156104a457600080fd5b506104bf60048036038101906104ba9190611f2b565b611236565b6040516104cc9190612afe565b60405180910390f35b60007f80ac58cd000000000000000000000000000000000000000000000000000000007bffffffffffffffffffffffffffffffffffffffffffffffffffffffff1916827bffffffffffffffffffffffffffffffffffffffffffffffffffffffff191614806105a057507f5b5e139f000000000000000000000000000000000000000000000000000000007bffffffffffffffffffffffffffffffffffffffffffffffffffffffff1916827bffffffffffffffffffffffffffffffffffffffffffffffffffffffff1916145b806105b057506105af826112ca565b5b9050919050565b6060600480546105c69061309a565b80601f01602080910402602001604051908101604052809291908181526020018280546105f29061309a565b801561063f5780601f106106145761010080835404028352916020019161063f565b820191906000526020600020905b81548152906001019060200180831161062257829003601f168201915b5050505050905090565b600061065482611334565b610693576040517f08c379a000000000000000000000000000000000000000000000000000000000815260040161068a90612bbb565b60405180910390fd5b6002600083815260200190815260200160002060009054906101000a900473ffffffffffffffffffffffffffffffffffffffff169050919050565b60006106d982610a39565b90506106e482611334565b610723576040517f08c379a000000000000000000000000000000000000000000000000000000000815260040161071a90612c1b565b60405180910390fd5b8073ffffffffffffffffffffffffffffffffffffffff168373ffffffffffffffffffffffffffffffffffffffff161415610792576040517f08c379a000000000000000000000000000000000000000000000000000000000815260040161078990612d3b565b60405180910390fd5b8073ffffffffffffffffffffffffffffffffffffffff163373ffffffffffffffffffffffffffffffffffffffff1614806107d257506107d18133611236565b5b610811576040517f08c379a000000000000000000000000000000000000000000000000000000000815260040161080890612cbb565b60405180910390fd5b61081b83836113a0565b505050565b600047905090565b6108323382611463565b610871576040517f08c379a000000000000000000000000000000000000000000000000000000000815260040161086890612d5b565b60405180910390fd5b61087c838383611541565b505050565b3373ffffffffffffffffffffffffffffffffffffffff16600860009054906101000a900473ffffffffffffffffffffffffffffffffffffffff1673ffffffffffffffffffffffffffffffffffffffff1614610911576040517f08c379a000000000000000000000000000000000000000000000000000000000815260040161090890612ddb565b60405180910390fd5b80600a9080519060200190610927929190611d44565b5050565b60095481565b505050565b600061094182610a39565b905061094e6000836113a0565b816000808373ffffffffffffffffffffffffffffffffffffffff1673ffffffffffffffffffffffffffffffffffffffff168152602001908152602001600020600082825461099c9190612fb0565b925050819055506001600083815260200190815260200160002060006101000a81549073ffffffffffffffffffffffffffffffffffffffff021916905581600073ffffffffffffffffffffffffffffffffffffffff168273ffffffffffffffffffffffffffffffffffffffff167fddf252ad1be2c89b69c2b068fc378daa952ba7f163c4a11628f55a4df523b3ef60405160405180910390a45050565b60008073ffffffffffffffffffffffffffffffffffffffff166001600084815260200190815260200160002060009054906101000a900473ffffffffffffffffffffffffffffffffffffffff1673ffffffffffffffffffffffffffffffffffffffff161415610add576040517f08c379a0000000000000000000000000000000000000000000000000000000008152600401610ad490612cfb565b60405180910390fd5b6001600083815260200190815260200160002060009054906101000a900473ffffffffffffffffffffffffffffffffffffffff169050919050565b60008073ffffffffffffffffffffffffffffffffffffffff168273ffffffffffffffffffffffffffffffffffffffff161415610b89576040517f08c379a0000000000000000000000000000000000000000000000000000000008152600401610b8090612d9b565b60405180910390fd5b6000808373ffffffffffffffffffffffffffffffffffffffff1673ffffffffffffffffffffffffffffffffffffffff168152602001908152602001600020549050919050565b600b544210158015610be35750600c544211155b610c22576040517f08c379a0000000000000000000000000000000000000000000000000000000008152600401610c1990612dbb565b60405180910390fd5b600060095411610c67576040517f08c379a0000000000000000000000000000000000000000000000000000000008152600401610c5e90612c3b565b60405180910390fd5b600860009054906101000a900473ffffffffffffffffffffffffffffffffffffffff1673ffffffffffffffffffffffffffffffffffffffff168173ffffffffffffffffffffffffffffffffffffffff161415610cf8576040517f08c379a0000000000000000000000000000000000000000000000000000000008152600401610cef90612b3b565b60405180910390fd5b60095434148015610d365750600073ffffffffffffffffffffffffffffffffffffffff168173ffffffffffffffffffffffffffffffffffffffff1614155b610d75576040517f08c379a0000000000000000000000000000000000000000000000000000000008152600401610d6c90612bfb565b60405180910390fd5b60076000815480929190610d88906130cc565b9190505550610d9981600754611790565b50565b606060058054610dab9061309a565b80601f0160208091040260200160405190810160405280929190818152602001828054610dd79061309a565b8015610e245780601f10610df957610100808354040283529160200191610e24565b820191906000526020600020905b815481529060010190602001808311610e0757829003601f168201915b5050505050905090565b3373ffffffffffffffffffffffffffffffffffffffff168273ffffffffffffffffffffffffffffffffffffffff161415610e9d576040517f08c379a0000000000000000000000000000000000000000000000000000000008152600401610e9490612c7b565b60405180910390fd5b60008060003373ffffffffffffffffffffffffffffffffffffffff1673ffffffffffffffffffffffffffffffffffffffff1681526020019081526020016000205411610f1e576040517f08c379a0000000000000000000000000000000000000000000000000000000008152600401610f1590612b5b565b60405180910390fd5b80600360003373ffffffffffffffffffffffffffffffffffffffff1673ffffffffffffffffffffffffffffffffffffffff16815260200190815260200160002060008473ffffffffffffffffffffffffffffffffffffffff1673ffffffffffffffffffffffffffffffffffffffff16815260200190815260200160002060006101000a81548160ff0219169083151502179055508173ffffffffffffffffffffffffffffffffffffffff163373ffffffffffffffffffffffffffffffffffffffff167f17307eab39ab6107e8899845ad3d59bd9653f200f220920489ca2b5937696c318360405161100f9190612afe565b60405180910390a35050565b600860009054906101000a900473ffffffffffffffffffffffffffffffffffffffff1681565b61104b3384611463565b61108a576040517f08c379a000000000000000000000000000000000000000000000000000000000815260040161108190612d5b565b60405180910390fd5b6110da85858585858080601f016020809104026020016040519081016040528093929190818152602001838380828437600081840152601f19601f82011690508083019250505050505050611998565b5050505050565b60606110ec82611334565b61112b576040517f08c379a000000000000000000000000000000000000000000000000000000000815260040161112290612b7b565b60405180910390fd5b6000600a805461113a9061309a565b9050116111565760405180602001604052806000815250611182565b600a611161836119f4565b604051602001611172929190612a73565b6040516020818303038152906040525b9050919050565b3373ffffffffffffffffffffffffffffffffffffffff16600860009054906101000a900473ffffffffffffffffffffffffffffffffffffffff1673ffffffffffffffffffffffffffffffffffffffff1614611219576040517f08c379a000000000000000000000000000000000000000000000000000000000815260040161121090612ddb565b60405180910390fd5b670de0b6b3a76400008161122d9190612f56565b60098190555050565b6000600360008473ffffffffffffffffffffffffffffffffffffffff1673ffffffffffffffffffffffffffffffffffffffff16815260200190815260200160002060008373ffffffffffffffffffffffffffffffffffffffff1673ffffffffffffffffffffffffffffffffffffffff16815260200190815260200160002060009054906101000a900460ff16905092915050565b60007f01ffc9a7000000000000000000000000000000000000000000000000000000007bffffffffffffffffffffffffffffffffffffffffffffffffffffffff1916827bffffffffffffffffffffffffffffffffffffffffffffffffffffffff1916149050919050565b60008073ffffffffffffffffffffffffffffffffffffffff166001600084815260200190815260200160002060009054906101000a900473ffffffffffffffffffffffffffffffffffffffff1673ffffffffffffffffffffffffffffffffffffffff1614159050919050565b816002600083815260200190815260200160002060006101000a81548173ffffffffffffffffffffffffffffffffffffffff021916908373ffffffffffffffffffffffffffffffffffffffff1602179055508173ffffffffffffffffffffffffffffffffffffffff1661141282610a39565b73ffffffffffffffffffffffffffffffffffffffff167f8c5be1e5ebec7d5bd14f71427d1e84f3dd0314c0f7b2291e5b200ac8c7c3b925836040516114579190612dfb565b60405180910390a35050565b600061146e82611334565b6114ad576040517f08c379a00000000000000000000000000000000000000000000000000000000081526004016114a490612c9b565b60405180910390fd5b60006114b883610a39565b90508073ffffffffffffffffffffffffffffffffffffffff168473ffffffffffffffffffffffffffffffffffffffff16148061152757508373ffffffffffffffffffffffffffffffffffffffff1661150f84610649565b73ffffffffffffffffffffffffffffffffffffffff16145b8061153857506115378185611236565b5b91505092915050565b8273ffffffffffffffffffffffffffffffffffffffff1661156182610a39565b73ffffffffffffffffffffffffffffffffffffffff16146115b7576040517f08c379a00000000000000000000000000000000000000000000000000000000081526004016115ae90612d1b565b60405180910390fd5b600073ffffffffffffffffffffffffffffffffffffffff168273ffffffffffffffffffffffffffffffffffffffff161415611627576040517f08c379a000000000000000000000000000000000000000000000000000000000815260040161161e90612c5b565b60405180910390fd5b6116326000826113a0565b60016000808573ffffffffffffffffffffffffffffffffffffffff1673ffffffffffffffffffffffffffffffffffffffff16815260200190815260200160002060008282546116819190612fb0565b9250508190555060016000808473ffffffffffffffffffffffffffffffffffffffff1673ffffffffffffffffffffffffffffffffffffffff16815260200190815260200160002060008282546116d79190612ecf565b92505081905550816001600083815260200190815260200160002060006101000a81548173ffffffffffffffffffffffffffffffffffffffff021916908373ffffffffffffffffffffffffffffffffffffffff160217905550808273ffffffffffffffffffffffffffffffffffffffff168473ffffffffffffffffffffffffffffffffffffffff167fddf252ad1be2c89b69c2b068fc378daa952ba7f163c4a11628f55a4df523b3ef60405160405180910390a4505050565b600073ffffffffffffffffffffffffffffffffffffffff168273ffffffffffffffffffffffffffffffffffffffff161415611800576040517f08c379a00000000000000000000000000000000000000000000000000000000081526004016117f790612cdb565b60405180910390fd5b61180981611334565b15611849576040517f08c379a000000000000000000000000000000000000000000000000000000000815260040161184090612bdb565b60405180910390fd5b6006546007541115611890576040517f08c379a000000000000000000000000000000000000000000000000000000000815260040161188790612d7b565b60405180910390fd5b816001600083815260200190815260200160002060006101000a81548173ffffffffffffffffffffffffffffffffffffffff021916908373ffffffffffffffffffffffffffffffffffffffff16021790555060016000808473ffffffffffffffffffffffffffffffffffffffff1673ffffffffffffffffffffffffffffffffffffffff16815260200190815260200160002060008282546119319190612ecf565b92505081905550808273ffffffffffffffffffffffffffffffffffffffff16600073ffffffffffffffffffffffffffffffffffffffff167fddf252ad1be2c89b69c2b068fc378daa952ba7f163c4a11628f55a4df523b3ef60405160405180910390a45050565b6119a3848484611541565b6119af84848484611ba1565b6119ee576040517f08c379a00000000000000000000000000000000000000000000000000000000081526004016119e590612b9b565b60405180910390fd5b50505050565b60606000821415611a3c576040518060400160405280600181526020017f30000000000000000000000000000000000000000000000000000000000000008152509050611b9c565b600082905060005b60008214611a6e578080611a57906130cc565b915050600a82611a679190612f25565b9150611a44565b60008167ffffffffffffffff811115611ab0577f4e487b7100000000000000000000000000000000000000000000000000000000600052604160045260246000fd5b6040519080825280601f01601f191660200182016040528015611ae25781602001600182028036833780820191505090505b5090505b60008514611b9557600182611afb9190612fb0565b9150600a85611b0a9190613115565b6030611b169190612ecf565b60f81b818381518110611b52577f4e487b7100000000000000000000000000000000000000000000000000000000600052603260045260246000fd5b60200101907effffffffffffffffffffffffffffffffffffffffffffffffffffffffffffff1916908160001a905350600a85611b8e9190612f25565b9450611ae6565b8093505050505b919050565b6000611bc28473ffffffffffffffffffffffffffffffffffffffff16611d31565b15611d24578373ffffffffffffffffffffffffffffffffffffffff1663150b7a02338786866040518563ffffffff1660e01b8152600401611c069493929190612ab2565b602060405180830381600087803b158015611c2057600080fd5b505af1925050508015611c5157506040513d601f19601f82011682018060405250810190611c4e91906120d7565b60015b611cd4573d8060008114611c81576040519150601f19603f3d011682016040523d82523d6000602084013e611c86565b606091505b50600081511415611ccc576040517f08c379a0000000000000000000000000000000000000000000000000000000008152600401611cc390612b9b565b60405180910390fd5b805181602001fd5b63150b7a0260e01b7bffffffffffffffffffffffffffffffffffffffffffffffffffffffff1916817bffffffffffffffffffffffffffffffffffffffffffffffffffffffff191614915050611d29565b600190505b949350505050565b600080823b905060008111915050919050565b828054611d509061309a565b90600052602060002090601f016020900481019282611d725760008555611db9565b82601f10611d8b57805160ff1916838001178555611db9565b82800160010185558215611db9579182015b82811115611db8578251825591602001919060010190611d9d565b5b509050611dc69190611dca565b5090565b5b80821115611de3576000816000905550600101611dcb565b5090565b6000611dfa611df584612e47565b612e16565b905082815260208101848484011115611e1257600080fd5b611e1d848285613058565b509392505050565b600081359050611e3481613213565b92915050565b600081359050611e498161322a565b92915050565b600081359050611e5e81613241565b92915050565b600081519050611e7381613241565b92915050565b60008083601f840112611e8b57600080fd5b8235905067ffffffffffffffff811115611ea457600080fd5b602083019150836001820283011115611ebc57600080fd5b9250929050565b600082601f830112611ed457600080fd5b8135611ee4848260208601611de7565b91505092915050565b600081359050611efc81613258565b92915050565b600060208284031215611f1457600080fd5b6000611f2284828501611e25565b91505092915050565b60008060408385031215611f3e57600080fd5b6000611f4c85828601611e25565b9250506020611f5d85828601611e25565b9150509250929050565b600080600060608486031215611f7c57600080fd5b6000611f8a86828701611e25565b9350506020611f9b86828701611e25565b9250506040611fac86828701611eed565b9150509250925092565b600080600080600060808688031215611fce57600080fd5b6000611fdc88828901611e25565b9550506020611fed88828901611e25565b9450506040611ffe88828901611eed565b935050606086013567ffffffffffffffff81111561201b57600080fd5b61202788828901611e79565b92509250509295509295909350565b6000806040838503121561204957600080fd5b600061205785828601611e25565b925050602061206885828601611e3a565b9150509250929050565b6000806040838503121561208557600080fd5b600061209385828601611e25565b92505060206120a485828601611eed565b9150509250929050565b6000602082840312156120c057600080fd5b60006120ce84828501611e4f565b91505092915050565b6000602082840312156120e957600080fd5b60006120f784828501611e64565b91505092915050565b60006020828403121561211257600080fd5b600082013567ffffffffffffffff81111561212c57600080fd5b61213884828501611ec3565b91505092915050565b60006020828403121561215357600080fd5b600061216184828501611eed565b91505092915050565b61217381612fe4565b82525050565b61218281612ff6565b82525050565b600061219382612e8c565b61219d8185612ea2565b93506121ad818560208601613067565b6121b681613202565b840191505092915050565b60006121cc82612e97565b6121d68185612eb3565b93506121e6818560208601613067565b6121ef81613202565b840191505092915050565b600061220582612e97565b61220f8185612ec4565b935061221f818560208601613067565b80840191505092915050565b600081546122388161309a565b6122428186612ec4565b9450600182166000811461225d576001811461226e576122a1565b60ff198316865281860193506122a1565b61227785612e77565b60005b838110156122995781548189015260018201915060208101905061227a565b838801955050505b50505092915050565b60006122b7602383612eb3565b91507f20726563697069656e742073686f756c64206e6f7420626520746f6b656e4f7760008301527f6e657200000000000000000000000000000000000000000000000000000000006020830152604082019050919050565b600061231d602083612eb3565b91507f63616c6c65722073686f756c64206861766520746f6b656e2062616c616e63656000830152602082019050919050565b600061235d601f83612eb3565b91507f55524920717565727920666f72206e6f6e6578697374656e7420746f6b656e006000830152602082019050919050565b600061239d603283612eb3565b91507f4552433732313a207472616e7366657220746f206e6f6e20455243373231526560008301527f63656976657220696d706c656d656e74657200000000000000000000000000006020830152604082019050919050565b6000612403603183612eb3565b91507f4552433732313a20617070726f76656420717565727920666f72206e6f6e657860008301527f697374656e74206f6620746f6b656e49640000000000000000000000000000006020830152604082019050919050565b6000612469601c83612eb3565b91507f4552433732313a20746f6b656e20616c7265616479206d696e746564000000006000830152602082019050919050565b60006124a9604f83612eb3565b91507f416d6f756e742073686f756c642062652076616c696428657175616c20746f2060008301527f5f746f6b656e507269636529616e6420726563697069656e74206d757374206260208301527f652076616c6964206164647265737300000000000000000000000000000000006040830152606082019050919050565b6000612535602483612eb3565b91507f617070726f76616c20717565727920666f72206e6f6e6578697374656e74207460008301527f6f6b656e000000000000000000000000000000000000000000000000000000006020830152604082019050919050565b600061259b601983612eb3565b91507f746f6b656e207072696365206d7375742062652076616c6964000000000000006000830152602082019050919050565b60006125db602483612eb3565b91507f4552433732313a207472616e7366657220746f20746865207a65726f2061646460008301527f72657373000000000000000000000000000000000000000000000000000000006020830152604082019050919050565b6000612641601983612eb3565b91507f4552433732313a20617070726f766520746f2063616c6c6572000000000000006000830152602082019050919050565b6000612681602c83612eb3565b91507f4552433732313a206f70657261746f7220717565727920666f72206e6f6e657860008301527f697374656e7420746f6b656e00000000000000000000000000000000000000006020830152604082019050919050565b60006126e7603f83612eb3565b91507f4552433732313a20617070726f76652063616c6c6572206973206e656974686560008301527f7220616e206f776e6572206e6f7220617070726f76656420666f7220616c6c006020830152604082019050919050565b600061274d602083612eb3565b91507f4552433732313a206d696e7420746f20746865207a65726f20616464726573736000830152602082019050919050565b600061278d602d83612eb3565b91507f426174636831332d4e46543a6f776e657220717565727920666f72206e6f6e6560008301527f78697374656e7420746f6b656e000000000000000000000000000000000000006020830152604082019050919050565b60006127f3602983612eb3565b91507f4552433732313a207472616e73666572206f6620746f6b656e2074686174206960008301527f73206e6f74206f776e00000000000000000000000000000000000000000000006020830152604082019050919050565b6000612859602183612eb3565b91507f4552433732313a20617070726f76616c20746f2063757272656e74206f776e6560008301527f72000000000000000000000000000000000000000000000000000000000000006020830152604082019050919050565b60006128bf603183612eb3565b91507f4552433732313a207472616e736665722063616c6c6572206973206e6f74206f60008301527f776e6572206e6f7220617070726f7665640000000000000000000000000000006020830152604082019050919050565b6000612925602383612eb3565b91507f4e6f206d6f726520746f6b656e20617661696c61626c6520666f72206d696e7460008301527f696e6700000000000000000000000000000000000000000000000000000000006020830152604082019050919050565b600061298b602f83612eb3565b91507f426174636831332d4e46543a2062616c616e636520717565727920666f72207460008301527f6865207a65726f206164647265737300000000000000000000000000000000006020830152604082019050919050565b60006129f1601783612eb3565b91507f4f7073212053616c652069736e277420737461727465640000000000000000006000830152602082019050919050565b6000612a31600f83612eb3565b91507f4e6f7420746f6b656e206f776e657200000000000000000000000000000000006000830152602082019050919050565b612a6d8161304e565b82525050565b6000612a7f828561222b565b9150612a8b82846121fa565b91508190509392505050565b6000602082019050612aac600083018461216a565b92915050565b6000608082019050612ac7600083018761216a565b612ad4602083018661216a565b612ae16040830185612a64565b8181036060830152612af38184612188565b905095945050505050565b6000602082019050612b136000830184612179565b92915050565b60006020820190508181036000830152612b3381846121c1565b905092915050565b60006020820190508181036000830152612b54816122aa565b9050919050565b60006020820190508181036000830152612b7481612310565b9050919050565b60006020820190508181036000830152612b9481612350565b9050919050565b60006020820190508181036000830152612bb481612390565b9050919050565b60006020820190508181036000830152612bd4816123f6565b9050919050565b60006020820190508181036000830152612bf48161245c565b9050919050565b60006020820190508181036000830152612c148161249c565b9050919050565b60006020820190508181036000830152612c3481612528565b9050919050565b60006020820190508181036000830152612c548161258e565b9050919050565b60006020820190508181036000830152612c74816125ce565b9050919050565b60006020820190508181036000830152612c9481612634565b9050919050565b60006020820190508181036000830152612cb481612674565b9050919050565b60006020820190508181036000830152612cd4816126da565b9050919050565b60006020820190508181036000830152612cf481612740565b9050919050565b60006020820190508181036000830152612d1481612780565b9050919050565b60006020820190508181036000830152612d34816127e6565b9050919050565b60006020820190508181036000830152612d548161284c565b9050919050565b60006020820190508181036000830152612d74816128b2565b9050919050565b60006020820190508181036000830152612d9481612918565b9050919050565b60006020820190508181036000830152612db48161297e565b9050919050565b60006020820190508181036000830152612dd4816129e4565b9050919050565b60006020820190508181036000830152612df481612a24565b9050919050565b6000602082019050612e106000830184612a64565b92915050565b6000604051905081810181811067ffffffffffffffff82111715612e3d57612e3c6131d3565b5b8060405250919050565b600067ffffffffffffffff821115612e6257612e616131d3565b5b601f19601f8301169050602081019050919050565b60008190508160005260206000209050919050565b600081519050919050565b600081519050919050565b600082825260208201905092915050565b600082825260208201905092915050565b600081905092915050565b6000612eda8261304e565b9150612ee58361304e565b9250827fffffffffffffffffffffffffffffffffffffffffffffffffffffffffffffffff03821115612f1a57612f19613146565b5b828201905092915050565b6000612f308261304e565b9150612f3b8361304e565b925082612f4b57612f4a613175565b5b828204905092915050565b6000612f618261304e565b9150612f6c8361304e565b9250817fffffffffffffffffffffffffffffffffffffffffffffffffffffffffffffffff0483118215151615612fa557612fa4613146565b5b828202905092915050565b6000612fbb8261304e565b9150612fc68361304e565b925082821015612fd957612fd8613146565b5b828203905092915050565b6000612fef8261302e565b9050919050565b60008115159050919050565b60007fffffffff0000000000000000000000000000000000000000000000000000000082169050919050565b600073ffffffffffffffffffffffffffffffffffffffff82169050919050565b6000819050919050565b82818337600083830152505050565b60005b8381101561308557808201518184015260208101905061306a565b83811115613094576000848401525b50505050565b600060028204905060018216806130b257607f821691505b602082108114156130c6576130c56131a4565b5b50919050565b60006130d78261304e565b91507fffffffffffffffffffffffffffffffffffffffffffffffffffffffffffffffff82141561310a57613109613146565b5b600182019050919050565b60006131208261304e565b915061312b8361304e565b92508261313b5761313a613175565b5b828206905092915050565b7f4e487b7100000000000000000000000000000000000000000000000000000000600052601160045260246000fd5b7f4e487b7100000000000000000000000000000000000000000000000000000000600052601260045260246000fd5b7f4e487b7100000000000000000000000000000000000000000000000000000000600052602260045260246000fd5b7f4e487b7100000000000000000000000000000000000000000000000000000000600052604160045260246000fd5b6000601f19601f8301169050919050565b61321c81612fe4565b811461322757600080fd5b50565b61323381612ff6565b811461323e57600080fd5b50565b61324a81613002565b811461325557600080fd5b50565b6132618161304e565b811461326c57600080fd5b5056fea26469706673582212200ca55e5d93853cb9c405955b10e922a68d3bef95f7f2b9445b485902c165743f64736f6c63430008000033",
  "immutableReferences": {},
  "source": "// SPDX-License-Identifier: MIT\r\npragma solidity ^0.8.0;\r\n\r\nimport \"./ERC165.sol\";\r\nimport \"./IERC721.sol\";\r\nimport \"./IERC721Metadata.sol\";\r\nimport \"./IERC721TokenReceiver.sol\";\r\nimport \"./Strings.sol\";\r\nimport \"./Address.sol\";\r\n// import \"./Context.sol\";\r\n// import \"./IERC721Enumerable.sol\";\r\n\r\ncontract ERC721_SaleToken is ERC165, IERC721, IERC721Metadata{\r\n    \r\n     using Strings for uint256;\r\n     using Address for address;\r\n \r\n    mapping(address => uint256) private _balances;\r\n    mapping(uint256 => address) private _owners;\r\n\r\n    mapping(uint256 => address) private _tokenApprovals;\r\n    mapping(address => mapping(address => bool)) private _operatorApprovals;\r\n    \r\n    string private _name;\r\n    string private _symbol;\r\n    \r\n    uint256 private _totalSupply = 12;\r\n    uint256 private _tokenSupply = 0;\r\n    \r\n    address public tokenOwner;\r\n    uint256 public _tokenPrice;\r\n    string internal _baseURI;\r\n    \r\n    uint256 private _saleStartDate = block.timestamp + 30;\r\n    uint256 private _saleEndDate = _saleStartDate + 30 days;\r\n\r\n    \r\n    // ---------------------------------------------------------------Mofifiers---------------------------------------------------/\r\n    \r\n    \r\n    modifier onlyOwner() {\r\n        require(tokenOwner == msg.sender,\"Not token owner\");\r\n        _;\r\n    }\r\n    \r\n    \r\n    modifier isSaleOn() {\r\n        require(block.timestamp >= _saleStartDate  && block.timestamp <= _saleEndDate,\"Ops! Sale isn't started\");\r\n        require(_tokenPrice > 0,\"token price msut be valid\");\r\n        _;\r\n    }\r\n    \r\n    \r\n    // -----------------------------------------------------------Constructor----------------------------------------------------/\r\n\r\n    constructor(){\r\n    \r\n        _name = \"ERC721_SaleToken\";\r\n        _symbol = \"ERC721-S-Token\";\r\n        \r\n        tokenOwner = msg.sender;\r\n        \r\n        // _totalSupply = 12;\r\n        \r\n        // register the supported interfaces to conform to ERC721 via ERC165\r\n        // _registerInterface(_INTERFACE_ID_ERC721);\r\n    }\r\n    \r\n    // ------------------------------------------------------------ERC165 Interface----------------------------------------------/\r\n    \r\n    bytes4 private constant _INTERFACE_ID_ERC721 = 0x80ac58cd;\r\n    bytes4 private constant _INTERFACE_ID_ERC721_METADATA = 0x5b5e139f;\r\n    bytes4 private constant _INTERFACE_ID_ERC721_ENUMERABLE = 0x780e9d63;\r\n    \r\n      /**\r\n     * @dev See {IERC165-supportsInterface}.\r\n     */\r\n    function supportsInterface(bytes4 interfaceId) public view virtual override(ERC165, IERC165) returns (bool) {\r\n        return\r\n            interfaceId == type(IERC721).interfaceId ||\r\n            interfaceId == type(IERC721Metadata).interfaceId ||\r\n            super.supportsInterface(interfaceId);\r\n    }\r\n    \r\n    \r\n    // -----------------------------------------------------------Helper Functions--------------------------------------/\r\n    \r\n    function _exists(uint256 tokenId) internal view virtual returns(bool){\r\n         return _owners[tokenId] != address(0);\r\n     }\r\n     \r\n                        //          EOA/msg.sender\r\n    function _isApprovedOrOwner(address spender, uint256 tokenId) internal view virtual returns (bool) {\r\n        require(_exists(tokenId), \"ERC721: operator query for nonexistent token\");\r\n        address owner = ownerOf(tokenId);\r\n        return (spender == owner || getApproved(tokenId) == spender || isApprovedForAll(owner, spender));\r\n        // return (spender == owner || _tokenApprovals[tokenId] == spender || _operatorApprovals[owner][spender]);   //alternate of above return\r\n    }\r\n    \r\n\r\n    function _approve(address to, uint256 tokenId) internal virtual {\r\n        _tokenApprovals[tokenId] = to;\r\n        emit Approval(ownerOf(tokenId), to, tokenId);\r\n    }\r\n    \r\n    \r\n    function _transfer(address from, address to, uint256 tokenId) internal virtual {\r\n        require(ownerOf(tokenId) == from, \"ERC721: transfer of token that is not own\");\r\n        require(to != address(0), \"ERC721: transfer to the zero address\");\r\n\r\n        // _beforeTokenTransfer(from, to, tokenId);\r\n\r\n        // Clear approvals from the previous owner\r\n        _approve(address(0), tokenId);\r\n\r\n        _balances[from] -= 1;\r\n        _balances[to] += 1;\r\n        _owners[tokenId] = to;\r\n\r\n        emit Transfer(from, to, tokenId);\r\n    }\r\n    \r\n\r\n    function _safeTransfer(address from, address to, uint256 tokenId, bytes memory _data) internal virtual {\r\n        _transfer(from, to, tokenId);\r\n        require(_checkOnERC721Received(from, to, tokenId, _data), \"ERC721: transfer to non ERC721Receiver implementer\");\r\n    }\r\n    \r\n        \r\n    \r\n    // -----------------------------------------------------------Metadata-------------------------------------------------------/\r\n    \r\n \r\n    function name() public view virtual override returns(string memory){\r\n        return _name;\r\n    }\r\n    \r\n    \r\n    function symbol() public view virtual override returns(string memory){\r\n        return _symbol;\r\n    }\r\n    \r\n\r\n    function tokenURI(uint256 tokenId) public view virtual override returns(string memory){\r\n        \r\n        require(_exists(tokenId),\"URI query for nonexistent token\");\r\n        \r\n        // string memory baseURI = _baseURI;\r\n        \r\n        return bytes(_baseURI).length > 0 ? string(abi.encodePacked(_baseURI, tokenId.toString())) : \"\";\r\n    } \r\n    \r\n\r\n    function _setBaseURI(string memory URI) public onlyOwner {\r\n        \r\n        _baseURI = URI;  // https://my-json-server.typicode.com/javaidrauf/testNFT/tokens/\r\n    }\r\n    \r\n    \r\n    // ------------------------------------------------------------Owner & balanceOf---------------------------------------/\r\n    \r\n    \r\n    function balanceOf(address owner) public view virtual override returns(uint256){\r\n        \r\n        require(owner != address(0),\"Batch13-NFT: balance query for the zero address\");\r\n        \r\n        return _balances[owner];\r\n    }\r\n    \r\n    \r\n    \r\n    function balanceOfCont() public view returns(uint256){\r\n        \r\n        return address(this).balance;\r\n    }\r\n    \r\n    \r\n    function ownerOf(uint256 tokenId) public view virtual override returns(address){\r\n        \r\n        require(_owners[tokenId] != address(0),\"Batch13-NFT:owner query for nonexistent token\");\r\n        \r\n        return _owners[tokenId];\r\n    } \r\n    \r\n    \r\n    // -------------------------------------------------------------Approval Functions--------------------------------------/\r\n    \r\n    \r\n    function setApprovalForAll(address operator, bool approved) public virtual override{\r\n        \r\n        require(operator != msg.sender,\"ERC721: approve to caller\");\r\n        \r\n        require(_balances[msg.sender] > 0,\"caller should have token balance\");  //added myself\r\n        \r\n        _operatorApprovals[msg.sender][operator] = approved;\r\n        \r\n        emit ApprovalForAll(msg.sender,operator,approved);\r\n        \r\n    }\r\n    \r\n    \r\n    function isApprovedForAll(address owner, address operator) public view virtual override returns(bool){\r\n        \r\n        return _operatorApprovals[owner][operator];\r\n        \r\n    }\r\n    \r\n    \r\n    \r\n    function approve(address to, uint256 tokenId) public virtual override{\r\n        \r\n        address owner = ownerOf(tokenId);\r\n        \r\n        require(_exists(tokenId),\"approval query for nonexistent token\");\r\n        \r\n        require(to != owner,\"ERC721: approval to current owner\");\r\n        \r\n        require(msg.sender == owner || isApprovedForAll(owner,msg.sender),\"ERC721: approve caller is neither an owner nor approved for all\");\r\n        \r\n        \r\n        _approve(to,tokenId);\r\n        \r\n        // _approve(to,tokenid) has following code:\r\n        // function _approve(address to, uint256 tokenId) internal virtual {\r\n        // _tokenApprovals[tokenId] = to;\r\n        // emit Approval(ownerOf(tokenId), to, tokenId);\r\n        // }\r\n    }\r\n    \r\n    \r\n        \r\n    function getApproved(uint256 tokenId) public view virtual override returns(address operator){\r\n        \r\n        require(_exists(tokenId),\"ERC721: approved query for nonexistent of tokenId\");\r\n        \r\n        return _tokenApprovals[tokenId];\r\n        \r\n    }\r\n    \r\n    \r\n    // -----------------------------------------------------------------Tranfer Functions---------------------------------------/\r\n    \r\n    \r\n    function transferFrom(address from, address to, uint256 tokenId) public virtual override{\r\n        \r\n        require(_isApprovedOrOwner(msg.sender, tokenId), \"ERC721: transfer caller is not owner nor approved\");\r\n        \r\n        // function _isApprovedOrOwner(address spender, uint256 tokenId) internal view virtual returns (bool) {\r\n        // require(exists(tokenId), \"ERC721: operator query for nonexistent token\");\r\n        // address owner = ownerOf(tokenId);\r\n        // return (spender == owner || getApproved(tokenId) == spender || isApprovedForAll(owner, spender));\r\n        // }\r\n        \r\n        _transfer(from, to, tokenId);\r\n        \r\n    //   _transfer(fro,to,tokenId) has following code:\r\n    //     function _transfer(address from, address to, uint256 tokenId) internal virtual {\r\n    //     require(ownerOf(tokenId) == from, \"ERC721: transfer of token that is not own\");\r\n    //     require(to != address(0), \"ERC721: transfer to the zero address\");\r\n\r\n    //     // _beforeTokenTransfer(from, to, tokenId);\r\n\r\n    //     // Clear approvals from the previous owner\r\n    //     _approve(address(0), tokenId);\r\n\r\n    //     _balances[from] -= 1;\r\n    //     _balances[to] += 1;\r\n    //     _owners[tokenId] = to;\r\n\r\n    //     emit Transfer(from, to, tokenId);\r\n    //     }\r\n    }\r\n    \r\n    \r\n    function safeTransferFrom(address from, address to, uint256 tokenId,bytes calldata data) public virtual override{\r\n    \r\n        require(_isApprovedOrOwner(msg.sender, tokenId), \"ERC721: transfer caller is not owner nor approved\");\r\n        \r\n        _safeTransfer(from, to, tokenId, data);\r\n        \r\n        // function _safeTransfer(address from, address to, uint256 tokenId, bytes memory _data) internal virtual {\r\n        // _transfer(from, to, tokenId);\r\n        // require(_checkOnERC721Received(from, to, tokenId, _data), \"ERC721: transfer to non ERC721Receiver implementer\");\r\n        \r\n    }\r\n    \r\n\r\n    function safeTransferFrom(address from, address to, uint256 tokenId) public virtual override{\r\n        \r\n        // safeTransferFrom(from,to,tokenId,\"\");\r\n    }\r\n  \r\n    \r\n    \r\n    function _checkOnERC721Received(address from,address to,uint256 tokenId,bytes memory data) private returns (bool) {\r\n        if (to.isContract()) {\r\n            try IERC721TokenReceiver(to).onERC721Received(msg.sender, from, tokenId, data) returns (bytes4 retval) {\r\n                return retval == IERC721TokenReceiver.onERC721Received.selector;\r\n            } catch (bytes memory reason) {\r\n                if (reason.length == 0) {\r\n                    revert(\"ERC721: transfer to non ERC721Receiver implementer\");\r\n                } else {\r\n                    assembly {\r\n                        revert(add(32, reason), mload(reason))\r\n                    }\r\n                }\r\n            }\r\n        } else {\r\n            return true;\r\n        }\r\n    }\r\n    \r\n    \r\n    // --------------------------------------------------------------Sales Token----------------------------------------/\r\n    \r\n    \r\n    //   modifier isSaleOn() {\r\n    //     require(block.timestamp >= _saleStartDate  && block.timestamp <= _saleEndDate,\"Ops! Sale isn't started\");\r\n    //     _;\r\n    // }\r\n    \r\n    function tokenPrice(uint256 _setTokenPrice) public onlyOwner {\r\n        \r\n        _tokenPrice = _setTokenPrice * 10 ** 18;\r\n        \r\n    }\r\n    \r\n    \r\n    // function saleStarts(uint256 _setTokenPrice) public onlyOwner {\r\n        \r\n    //     require(_setTokenPrice > 0,\"token price must be valid\");\r\n        \r\n    //     _saleStartDate = block.timestamp;\r\n        \r\n    //     _saleEndDate = _saleStartDate + 30;\r\n        \r\n    //     _tokenPrice = _setTokenPrice;\r\n    // }\r\n    \r\n    \r\n    function mint(address to, uint256 tokenId) internal virtual {\r\n        \r\n       require(to != address(0),\"ERC721: mint to the zero address\");\r\n       \r\n       require(!_exists(tokenId),\"ERC721: token already minted\");\r\n       \r\n       require(_tokenSupply <= _totalSupply,\"No more token available for minting\");\r\n       \r\n       _owners[tokenId] = to;\r\n       \r\n       _balances[to] += 1;\r\n      \r\n      emit Transfer(address(0),to,tokenId);\r\n       \r\n   }\r\n   \r\n   \r\n   \r\n   function buyToken(address to) public payable isSaleOn {\r\n       \r\n       require(to != tokenOwner,\" recipient should not be tokenOwner\");\r\n       \r\n       require(msg.value == _tokenPrice && to != address(0), \"Amount should be valid(equal to _tokenPrice)and recipient must be valid address\");\r\n       \r\n      _tokenSupply++;\r\n       \r\n       mint(to,_tokenSupply);\r\n   }\r\n   \r\n   \r\n   function burn(uint256 tokenId) public virtual{\r\n       \r\n       address owner = ownerOf(tokenId);\r\n       \r\n    //   clear approvals\r\n    _approve(address(0), tokenId);\r\n    \r\n    _balances[owner] -= tokenId;\r\n    \r\n    delete _owners[tokenId];\r\n    \r\n    emit Transfer(owner, address(0), tokenId);\r\n    \r\n   }\r\n      \r\n   \r\n   fallback() external payable{}\r\n   \r\n   receive() external payable{}\r\n  \r\n}\r\n",
  "sourcePath": "C:\\Users\\javaid.rauf\\Desktop\\Blockchain(BCC)\\Q3\\Assignments\\Truffle\\ERC721_SaleToken\\contracts\\ERC721_SaleToken.sol",
  "compiler": {
    "name": "solc",
    "version": "0.8.0+commit.c7dfd78e.Emscripten.clang"
  },
  "schemaVersion": "3.4.3",
  "updatedAt": "2021-09-14T06:54:02.114Z",
  "networkType": "ethereum",
  "devdoc": {
    "kind": "dev",
    "methods": {
      "approve(address,uint256)": {
        "details": "Gives permission to `to` to transfer `tokenId` token to another account. The approval is cleared when the token is transferred. Only a single account can be approved at a time, so approving the zero address clears previous approvals. Requirements: - The caller must own the token or be an approved operator. - `tokenId` must exist. Emits an {Approval} event."
      },
      "getApproved(uint256)": {
        "details": "Returns the account approved for `tokenId` token. Requirements: - `tokenId` must exist."
      },
      "isApprovedForAll(address,address)": {
        "details": "Returns if the `operator` is allowed to manage all of the assets of `owner`. See {setApprovalForAll}"
      },
      "safeTransferFrom(address,address,uint256)": {
        "details": "Safely transfers `tokenId` token from `from` to `to`, checking first that contract recipients are aware of the ERC721 protocol to prevent tokens from being forever locked. Requirements: - `from` cannot be the zero address. - `to` cannot be the zero address. - `tokenId` token must exist and be owned by `from`. - If the caller is not `from`, it must be have been allowed to move this token by either {approve} or {setApprovalForAll}. - If `to` refers to a smart contract, it must implement {IERC721Receiver-onERC721Received}, which is called upon a safe transfer. Emits a {Transfer} event."
      },
      "setApprovalForAll(address,bool)": {
        "details": "Approve or remove `operator` as an operator for the caller. Operators can call {transferFrom} or {safeTransferFrom} for any token owned by the caller. Requirements: - The `operator` cannot be the caller. Emits an {ApprovalForAll} event."
      },
      "supportsInterface(bytes4)": {
        "details": "See {IERC165-supportsInterface}."
      },
      "tokenURI(uint256)": {
        "details": "Throws if `_tokenId` is not a valid NFT. URIs are defined in RFC  3986. The URI may point to a JSON file that conforms to the \"ERC721  Metadata JSON Schema\"."
      },
      "transferFrom(address,address,uint256)": {
        "details": "Transfers `tokenId` token from `from` to `to`. WARNING: Usage of this method is discouraged, use {safeTransferFrom} whenever possible. Requirements: - `from` cannot be the zero address. - `to` cannot be the zero address. - `tokenId` token must be owned by `from`. - If the caller is not `from`, it must be approved to move this token by either {approve} or {setApprovalForAll}. Emits a {Transfer} event."
      }
    },
    "version": 1
  },
  "userdoc": {
    "kind": "user",
    "methods": {
      "name()": {
        "notice": "A descriptive name for a collection of NFTs in this contract"
      },
      "symbol()": {
        "notice": "An abbreviated name for NFTs in this contract"
      },
      "tokenURI(uint256)": {
        "notice": "A distinct Uniform Resource Identifier (URI) for a given asset."
      }
    },
    "version": 1
  }
}